{"contracts/StakingTreasuryBurn.sol":{"StakingTreasuryBurn":{"abi":[{"inputs":[{"internalType":"address","name":"_stakingToken","type":"address"},{"internalType":"address","name":"_owner","type":"address"},{"internalType":"address","name":"_burnAddress","type":"address"},{"internalType":"uint16","name":"_burnBps","type":"uint16"}],"stateMutability":"nonpayable","type":"constructor"},{"inputs":[{"internalType":"uint256","name":"requested","type":"uint256"},{"internalType":"uint256","name":"available","type":"uint256"}],"name":"InsufficientStake","type":"error"},{"inputs":[],"name":"InvalidAddress","type":"error"},{"inputs":[{"internalType":"uint16","name":"bps","type":"uint16"}],"name":"InvalidBps","type":"error"},{"inputs":[{"internalType":"address","name":"owner","type":"address"}],"name":"OwnableInvalidOwner","type":"error"},{"inputs":[{"internalType":"address","name":"account","type":"address"}],"name":"OwnableUnauthorizedAccount","type":"error"},{"inputs":[],"name":"ReentrancyGuardReentrantCall","type":"error"},{"inputs":[{"internalType":"address","name":"token","type":"address"}],"name":"SafeERC20FailedOperation","type":"error"},{"inputs":[],"name":"ZeroAmount","type":"error"},{"anonymous":false,"inputs":[{"indexed":true,"internalType":"address","name":"burnAddress","type":"address"},{"indexed":false,"internalType":"uint16","name":"burnBps","type":"uint16"}],"name":"BurnConfigUpdated","type":"event"},{"anonymous":false,"inputs":[{"indexed":true,"internalType":"address","name":"previousOwner","type":"address"},{"indexed":true,"internalType":"address","name":"newOwner","type":"address"}],"name":"OwnershipTransferred","type":"event"},{"anonymous":false,"inputs":[{"indexed":true,"internalType":"address","name":"user","type":"address"},{"indexed":false,"internalType":"uint256","name":"amountIn","type":"uint256"},{"indexed":false,"internalType":"uint256","name":"burned","type":"uint256"},{"indexed":false,"internalType":"uint256","name":"credited","type":"uint256"}],"name":"Staked","type":"event"},{"anonymous":false,"inputs":[{"indexed":true,"internalType":"address","name":"token","type":"address"},{"indexed":true,"internalType":"address","name":"to","type":"address"},{"indexed":false,"internalType":"uint256","name":"amount","type":"uint256"}],"name":"Swept","type":"event"},{"anonymous":false,"inputs":[{"indexed":true,"internalType":"address","name":"user","type":"address"},{"indexed":false,"internalType":"uint256","name":"amountOut","type":"uint256"}],"name":"Withdrawn","type":"event"},{"inputs":[],"name":"MAX_BPS","outputs":[{"internalType":"uint16","name":"","type":"uint16"}],"stateMutability":"view","type":"function"},{"inputs":[],"name":"burnAddress","outputs":[{"internalType":"address","name":"","type":"address"}],"stateMutability":"view","type":"function"},{"inputs":[],"name":"burnBps","outputs":[{"internalType":"uint16","name":"","type":"uint16"}],"stateMutability":"view","type":"function"},{"inputs":[],"name":"owner","outputs":[{"internalType":"address","name":"","type":"address"}],"stateMutability":"view","type":"function"},{"inputs":[],"name":"renounceOwnership","outputs":[],"stateMutability":"nonpayable","type":"function"},{"inputs":[{"internalType":"address","name":"_burnAddress","type":"address"},{"internalType":"uint16","name":"_burnBps","type":"uint16"}],"name":"setBurnConfig","outputs":[],"stateMutability":"nonpayable","type":"function"},{"inputs":[{"internalType":"uint256","name":"amount","type":"uint256"}],"name":"stake","outputs":[],"stateMutability":"nonpayable","type":"function"},{"inputs":[{"internalType":"address","name":"","type":"address"}],"name":"stakedBalance","outputs":[{"internalType":"uint256","name":"","type":"uint256"}],"stateMutability":"view","type":"function"},{"inputs":[],"name":"stakingToken","outputs":[{"internalType":"contract IERC20","name":"","type":"address"}],"stateMutability":"view","type":"function"},{"inputs":[{"internalType":"address","name":"token","type":"address"},{"internalType":"address","name":"to","type":"address"},{"internalType":"uint256","name":"amount","type":"uint256"}],"name":"sweep","outputs":[],"stateMutability":"nonpayable","type":"function"},{"inputs":[],"name":"totalStaked","outputs":[{"internalType":"uint256","name":"","type":"uint256"}],"stateMutability":"view","type":"function"},{"inputs":[{"internalType":"address","name":"newOwner","type":"address"}],"name":"transferOwnership","outputs":[],"stateMutability":"nonpayable","type":"function"},{"inputs":[{"internalType":"uint256","name":"amount","type":"uint256"}],"name":"withdraw","outputs":[],"stateMutability":"nonpayable","type":"function"},{"inputs":[],"name":"withdrawAll","outputs":[],"stateMutability":"nonpayable","type":"function"}],"evm":{"bytecode":{"linkReferences":{},"object":"60a06040523480156200001157600080fd5b5060405162000f3c38038062000f3c8339810160408190526200003491620001d3565b826001600160a01b0381166200006557604051631e4fbdf760e01b8152600060048201526024015b60405180910390fd5b620000708162000166565b5060017f9b779b17422d0df92223018b32b4d1fa46e071723d6817e2486d003becc55f00556001600160a01b0384161580620000b357506001600160a01b038316155b15620000d25760405163e6c4247b60e01b815260040160405180910390fd5b6001600160a01b038216620000fa5760405163e6c4247b60e01b815260040160405180910390fd5b61271061ffff821611156200012957604051632b84a55760e11b815261ffff821660048201526024016200005c565b6001600160a01b039384166080526001805461ffff909216600160a01b026001600160b01b03199092169290941691909117179091555062000238565b600080546001600160a01b038381166001600160a01b0319831681178455604051919092169283917f8be0079c531659141344cd1fd0a4f28419497f9722a3daafe3b4186f6b6457e09190a35050565b80516001600160a01b0381168114620001ce57600080fd5b919050565b60008060008060808587031215620001ea57600080fd5b620001f585620001b6565b93506200020560208601620001b6565b92506200021560408601620001b6565b9150606085015161ffff811681146200022d57600080fd5b939692955090935050565b608051610cbe6200027e600039600081816101bd0152818161039f0152818161047c015281816104cb015281816106cd0152818161077701526107ef0152610cbe6000f3fe608060405234801561001057600080fd5b50600436106100ea5760003560e01c806372f702f31161008c5780638da5cb5b116100665780638da5cb5b146101f0578063a694fc3a14610201578063f2fde38b14610214578063fd967f471461022757600080fd5b806372f702f3146101b8578063817b1cd2146101df578063853828b6146101e857600080fd5b806360217267116100c8578063602172671461014457806362c067671461017257806370d5ae0514610185578063715018a6146101b057600080fd5b80631580795e146100ef5780632e1a7d4d1461010457806353deb3d614610117575b600080fd5b6101026100fd366004610b1f565b610230565b005b610102610112366004610b5d565b6102f9565b60015461012c90600160a01b900461ffff1681565b60405161ffff90911681526020015b60405180910390f35b610164610152366004610b76565b60036020526000908152604090205481565b60405190815260200161013b565b610102610180366004610b98565b610416565b600154610198906001600160a01b031681565b6040516001600160a01b03909116815260200161013b565b610102610649565b6101987f000000000000000000000000000000000000000000000000000000000000000081565b61016460025481565b61010261065d565b6000546001600160a01b0316610198565b61010261020f366004610b5d565b610741565b610102610222366004610b76565b6108b1565b61012c61271081565b6102386108ec565b6001600160a01b03821661025f5760405163e6c4247b60e01b815260040160405180910390fd5b61271061ffff8216111561029157604051632b84a55760e11b815261ffff821660048201526024015b60405180910390fd5b600180546001600160a01b0384166001600160b01b03199091168117600160a01b61ffff851690810291909117909255604051918252907f2fa9002066b8a449ce7ee186d9885e027995bf3a87930f35bf88649023e5f1e19060200160405180910390a25050565b610301610919565b8060000361032257604051631f2a200560e01b815260040160405180910390fd5b336000908152600360205260409020548082111561035d576040516322df051360e11b81526004810183905260248101829052604401610288565b6103678282610bea565b336000908152600360205260408120919091556002805484929061038c908490610bea565b909155506103c690506001600160a01b037f0000000000000000000000000000000000000000000000000000000000000000163384610935565b60405182815233907f7084f5476618d8e60b11ef0d7d3f06914655adb8793e28ff7f018d4c76d505d59060200160405180910390a2506104136001600080516020610c6983398151915255565b50565b61041e6108ec565b6001600160a01b038316158061043b57506001600160a01b038216155b156104595760405163e6c4247b60e01b815260040160405180910390fd5b8060000361047a57604051631f2a200560e01b815260040160405180910390fd5b7f00000000000000000000000000000000000000000000000000000000000000006001600160a01b0316836001600160a01b0316036105e3576040516370a0823160e01b81523060048201526000907f00000000000000000000000000000000000000000000000000000000000000006001600160a01b0316906370a0823190602401602060405180830381865afa15801561051a573d6000803e3d6000fd5b505050506040513d601f19601f8201168201806040525081019061053e9190610c03565b905060025481101561058b5760405162461bcd60e51b815260206004820152601660248201527512539590549250539517d0905317d31517d513d5105360521b6044820152606401610288565b60006002548261059b9190610bea565b9050808311156105e05760405162461bcd60e51b815260206004820152601060248201526f414d4f554e545f47545f45584345535360801b6044820152606401610288565b50505b6105f76001600160a01b0384168383610935565b816001600160a01b0316836001600160a01b03167f7b09c29f9106defeccc9ac3b823f3aad0b470d120e5df7aed033b5c43a4bf7188360405161063c91815260200190565b60405180910390a3505050565b6106516108ec565b61065b600061096f565b565b610665610919565b336000908152600360205260408120549081900361069657604051631f2a200560e01b815260040160405180910390fd5b336000908152600360205260408120819055600280548392906106ba908490610bea565b909155506106f490506001600160a01b037f0000000000000000000000000000000000000000000000000000000000000000163383610935565b60405181815233907f7084f5476618d8e60b11ef0d7d3f06914655adb8793e28ff7f018d4c76d505d59060200160405180910390a25061065b6001600080516020610c6983398151915255565b610749610919565b8060000361076a57604051631f2a200560e01b815260040160405180910390fd5b61079f6001600160a01b037f0000000000000000000000000000000000000000000000000000000000000000163330846109bf565b600154600090612710906107be90600160a01b900461ffff1684610c1c565b6107c89190610c33565b905060006107d68284610bea565b9050811561081857600154610818906001600160a01b037f00000000000000000000000000000000000000000000000000000000000000008116911684610935565b3360009081526003602052604081208054839290610837908490610c55565b9250508190555080600260008282546108509190610c55565b9091555050604080518481526020810184905290810182905233907fb4caaf29adda3eefee3ad552a8e85058589bf834c7466cae4ee58787f70589ed9060600160405180910390a250506104136001600080516020610c6983398151915255565b6108b96108ec565b6001600160a01b0381166108e357604051631e4fbdf760e01b815260006004820152602401610288565b6104138161096f565b6000546001600160a01b0316331461065b5760405163118cdaa760e01b8152336004820152602401610288565b6109216109fb565b6002600080516020610c6983398151915255565b6109428383836001610a2b565b61096a57604051635274afe760e01b81526001600160a01b0384166004820152602401610288565b505050565b600080546001600160a01b038381166001600160a01b0319831681178455604051919092169283917f8be0079c531659141344cd1fd0a4f28419497f9722a3daafe3b4186f6b6457e09190a35050565b6109cd848484846001610a91565b6109f557604051635274afe760e01b81526001600160a01b0385166004820152602401610288565b50505050565b600080516020610c698339815191525460020361065b57604051633ee5aeb560e01b815260040160405180910390fd5b60405163a9059cbb60e01b60008181526001600160a01b038616600452602485905291602083604481808b5af192506001600051148316610a85578383151615610a78573d6000823e3d81fd5b6000873b113d1516831692505b60405250949350505050565b6040516323b872dd60e01b60008181526001600160a01b038781166004528616602452604485905291602083606481808c5af192506001600051148316610af1578383151615610ae4573d6000823e3d81fd5b6000883b113d1516831692505b60405250600060605295945050505050565b80356001600160a01b0381168114610b1a57600080fd5b919050565b60008060408385031215610b3257600080fd5b610b3b83610b03565b9150602083013561ffff81168114610b5257600080fd5b809150509250929050565b600060208284031215610b6f57600080fd5b5035919050565b600060208284031215610b8857600080fd5b610b9182610b03565b9392505050565b600080600060608486031215610bad57600080fd5b610bb684610b03565b9250610bc460208501610b03565b9150604084013590509250925092565b634e487b7160e01b600052601160045260246000fd5b81810381811115610bfd57610bfd610bd4565b92915050565b600060208284031215610c1557600080fd5b5051919050565b8082028115828204841417610bfd57610bfd610bd4565b600082610c5057634e487b7160e01b600052601260045260246000fd5b500490565b80820180821115610bfd57610bfd610bd456fe9b779b17422d0df92223018b32b4d1fa46e071723d6817e2486d003becc55f00a2646970667358221220e6e0eaf47c2f3f37b3acbc6af712203b266c25ea5d7c1ed0ab8256640665ca6d64736f6c63430008180033","opcodes":"PUSH1 0xA0 PUSH1 0x40 MSTORE CALLVALUE DUP1 ISZERO PUSH3 0x11 JUMPI PUSH1 0x0 DUP1 REVERT JUMPDEST POP PUSH1 0x40 MLOAD PUSH3 0xF3C CODESIZE SUB DUP1 PUSH3 0xF3C DUP4 CODECOPY DUP2 ADD PUSH1 0x40 DUP2 SWAP1 MSTORE PUSH3 0x34 SWAP2 PUSH3 0x1D3 JUMP JUMPDEST DUP3 PUSH1 0x1 PUSH1 0x1 PUSH1 0xA0 SHL SUB DUP2 AND PUSH3 0x65 JUMPI PUSH1 0x40 MLOAD PUSH4 0x1E4FBDF7 PUSH1 0xE0 SHL DUP2 MSTORE PUSH1 0x0 PUSH1 0x4 DUP3 ADD MSTORE PUSH1 0x24 ADD JUMPDEST PUSH1 0x40 MLOAD DUP1 SWAP2 SUB SWAP1 REVERT JUMPDEST PUSH3 0x70 DUP2 PUSH3 0x166 JUMP JUMPDEST POP PUSH1 0x1 PUSH32 0x9B779B17422D0DF92223018B32B4D1FA46E071723D6817E2486D003BECC55F00 SSTORE PUSH1 0x1 PUSH1 0x1 PUSH1 0xA0 SHL SUB DUP5 AND ISZERO DUP1 PUSH3 0xB3 JUMPI POP PUSH1 0x1 PUSH1 0x1 PUSH1 0xA0 SHL SUB DUP4 AND ISZERO JUMPDEST ISZERO PUSH3 0xD2 JUMPI PUSH1 0x40 MLOAD PUSH4 0xE6C4247B PUSH1 0xE0 SHL DUP2 MSTORE PUSH1 0x4 ADD PUSH1 0x40 MLOAD DUP1 SWAP2 SUB SWAP1 REVERT JUMPDEST PUSH1 0x1 PUSH1 0x1 PUSH1 0xA0 SHL SUB DUP3 AND PUSH3 0xFA JUMPI PUSH1 0x40 MLOAD PUSH4 0xE6C4247B PUSH1 0xE0 SHL DUP2 MSTORE PUSH1 0x4 ADD PUSH1 0x40 MLOAD DUP1 SWAP2 SUB SWAP1 REVERT JUMPDEST PUSH2 0x2710 PUSH2 0xFFFF DUP3 AND GT ISZERO PUSH3 0x129 JUMPI PUSH1 0x40 MLOAD PUSH4 0x2B84A557 PUSH1 0xE1 SHL DUP2 MSTORE PUSH2 0xFFFF DUP3 AND PUSH1 0x4 DUP3 ADD MSTORE PUSH1 0x24 ADD PUSH3 0x5C JUMP JUMPDEST PUSH1 0x1 PUSH1 0x1 PUSH1 0xA0 SHL SUB SWAP4 DUP5 AND PUSH1 0x80 MSTORE PUSH1 0x1 DUP1 SLOAD PUSH2 0xFFFF SWAP1 SWAP3 AND PUSH1 0x1 PUSH1 0xA0 SHL MUL PUSH1 0x1 PUSH1 0x1 PUSH1 0xB0 SHL SUB NOT SWAP1 SWAP3 AND SWAP3 SWAP1 SWAP5 AND SWAP2 SWAP1 SWAP2 OR OR SWAP1 SWAP2 SSTORE POP PUSH3 0x238 JUMP JUMPDEST PUSH1 0x0 DUP1 SLOAD PUSH1 0x1 PUSH1 0x1 PUSH1 0xA0 SHL SUB DUP4 DUP2 AND PUSH1 0x1 PUSH1 0x1 PUSH1 0xA0 SHL SUB NOT DUP4 AND DUP2 OR DUP5 SSTORE PUSH1 0x40 MLOAD SWAP2 SWAP1 SWAP3 AND SWAP3 DUP4 SWAP2 PUSH32 0x8BE0079C531659141344CD1FD0A4F28419497F9722A3DAAFE3B4186F6B6457E0 SWAP2 SWAP1 LOG3 POP POP JUMP JUMPDEST DUP1 MLOAD PUSH1 0x1 PUSH1 0x1 PUSH1 0xA0 SHL SUB DUP2 AND DUP2 EQ PUSH3 0x1CE JUMPI PUSH1 0x0 DUP1 REVERT JUMPDEST SWAP2 SWAP1 POP JUMP JUMPDEST PUSH1 0x0 DUP1 PUSH1 0x0 DUP1 PUSH1 0x80 DUP6 DUP8 SUB SLT ISZERO PUSH3 0x1EA JUMPI PUSH1 0x0 DUP1 REVERT JUMPDEST PUSH3 0x1F5 DUP6 PUSH3 0x1B6 JUMP JUMPDEST SWAP4 POP PUSH3 0x205 PUSH1 0x20 DUP7 ADD PUSH3 0x1B6 JUMP JUMPDEST SWAP3 POP PUSH3 0x215 PUSH1 0x40 DUP7 ADD PUSH3 0x1B6 JUMP JUMPDEST SWAP2 POP PUSH1 0x60 DUP6 ADD MLOAD PUSH2 0xFFFF DUP2 AND DUP2 EQ PUSH3 0x22D JUMPI PUSH1 0x0 DUP1 REVERT JUMPDEST SWAP4 SWAP7 SWAP3 SWAP6 POP SWAP1 SWAP4 POP POP JUMP JUMPDEST PUSH1 0x80 MLOAD PUSH2 0xCBE PUSH3 0x27E PUSH1 0x0 CODECOPY PUSH1 0x0 DUP2 DUP2 PUSH2 0x1BD ADD MSTORE DUP2 DUP2 PUSH2 0x39F ADD MSTORE DUP2 DUP2 PUSH2 0x47C ADD MSTORE DUP2 DUP2 PUSH2 0x4CB ADD MSTORE DUP2 DUP2 PUSH2 0x6CD ADD MSTORE DUP2 DUP2 PUSH2 0x777 ADD MSTORE PUSH2 0x7EF ADD MSTORE PUSH2 0xCBE PUSH1 0x0 RETURN INVALID PUSH1 0x80 PUSH1 0x40 MSTORE CALLVALUE DUP1 ISZERO PUSH2 0x10 JUMPI PUSH1 0x0 DUP1 REVERT JUMPDEST POP PUSH1 0x4 CALLDATASIZE LT PUSH2 0xEA JUMPI PUSH1 0x0 CALLDATALOAD PUSH1 0xE0 SHR DUP1 PUSH4 0x72F702F3 GT PUSH2 0x8C JUMPI DUP1 PUSH4 0x8DA5CB5B GT PUSH2 0x66 JUMPI DUP1 PUSH4 0x8DA5CB5B EQ PUSH2 0x1F0 JUMPI DUP1 PUSH4 0xA694FC3A EQ PUSH2 0x201 JUMPI DUP1 PUSH4 0xF2FDE38B EQ PUSH2 0x214 JUMPI DUP1 PUSH4 0xFD967F47 EQ PUSH2 0x227 JUMPI PUSH1 0x0 DUP1 REVERT JUMPDEST DUP1 PUSH4 0x72F702F3 EQ PUSH2 0x1B8 JUMPI DUP1 PUSH4 0x817B1CD2 EQ PUSH2 0x1DF JUMPI DUP1 PUSH4 0x853828B6 EQ PUSH2 0x1E8 JUMPI PUSH1 0x0 DUP1 REVERT JUMPDEST DUP1 PUSH4 0x60217267 GT PUSH2 0xC8 JUMPI DUP1 PUSH4 0x60217267 EQ PUSH2 0x144 JUMPI DUP1 PUSH4 0x62C06767 EQ PUSH2 0x172 JUMPI DUP1 PUSH4 0x70D5AE05 EQ PUSH2 0x185 JUMPI DUP1 PUSH4 0x715018A6 EQ PUSH2 0x1B0 JUMPI PUSH1 0x0 DUP1 REVERT JUMPDEST DUP1 PUSH4 0x1580795E EQ PUSH2 0xEF JUMPI DUP1 PUSH4 0x2E1A7D4D EQ PUSH2 0x104 JUMPI DUP1 PUSH4 0x53DEB3D6 EQ PUSH2 0x117 JUMPI JUMPDEST PUSH1 0x0 DUP1 REVERT JUMPDEST PUSH2 0x102 PUSH2 0xFD CALLDATASIZE PUSH1 0x4 PUSH2 0xB1F JUMP JUMPDEST PUSH2 0x230 JUMP JUMPDEST STOP JUMPDEST PUSH2 0x102 PUSH2 0x112 CALLDATASIZE PUSH1 0x4 PUSH2 0xB5D JUMP JUMPDEST PUSH2 0x2F9 JUMP JUMPDEST PUSH1 0x1 SLOAD PUSH2 0x12C SWAP1 PUSH1 0x1 PUSH1 0xA0 SHL SWAP1 DIV PUSH2 0xFFFF AND DUP2 JUMP JUMPDEST PUSH1 0x40 MLOAD PUSH2 0xFFFF SWAP1 SWAP2 AND DUP2 MSTORE PUSH1 0x20 ADD JUMPDEST PUSH1 0x40 MLOAD DUP1 SWAP2 SUB SWAP1 RETURN JUMPDEST PUSH2 0x164 PUSH2 0x152 CALLDATASIZE PUSH1 0x4 PUSH2 0xB76 JUMP JUMPDEST PUSH1 0x3 PUSH1 0x20 MSTORE PUSH1 0x0 SWAP1 DUP2 MSTORE PUSH1 0x40 SWAP1 KECCAK256 SLOAD DUP2 JUMP JUMPDEST PUSH1 0x40 MLOAD SWAP1 DUP2 MSTORE PUSH1 0x20 ADD PUSH2 0x13B JUMP JUMPDEST PUSH2 0x102 PUSH2 0x180 CALLDATASIZE PUSH1 0x4 PUSH2 0xB98 JUMP JUMPDEST PUSH2 0x416 JUMP JUMPDEST PUSH1 0x1 SLOAD PUSH2 0x198 SWAP1 PUSH1 0x1 PUSH1 0x1 PUSH1 0xA0 SHL SUB AND DUP2 JUMP JUMPDEST PUSH1 0x40 MLOAD PUSH1 0x1 PUSH1 0x1 PUSH1 0xA0 SHL SUB SWAP1 SWAP2 AND DUP2 MSTORE PUSH1 0x20 ADD PUSH2 0x13B JUMP JUMPDEST PUSH2 0x102 PUSH2 0x649 JUMP JUMPDEST PUSH2 0x198 PUSH32 0x0 DUP2 JUMP JUMPDEST PUSH2 0x164 PUSH1 0x2 SLOAD DUP2 JUMP JUMPDEST PUSH2 0x102 PUSH2 0x65D JUMP JUMPDEST PUSH1 0x0 SLOAD PUSH1 0x1 PUSH1 0x1 PUSH1 0xA0 SHL SUB AND PUSH2 0x198 JUMP JUMPDEST PUSH2 0x102 PUSH2 0x20F CALLDATASIZE PUSH1 0x4 PUSH2 0xB5D JUMP JUMPDEST PUSH2 0x741 JUMP JUMPDEST PUSH2 0x102 PUSH2 0x222 CALLDATASIZE PUSH1 0x4 PUSH2 0xB76 JUMP JUMPDEST PUSH2 0x8B1 JUMP JUMPDEST PUSH2 0x12C PUSH2 0x2710 DUP2 JUMP JUMPDEST PUSH2 0x238 PUSH2 0x8EC JUMP JUMPDEST PUSH1 0x1 PUSH1 0x1 PUSH1 0xA0 SHL SUB DUP3 AND PUSH2 0x25F JUMPI PUSH1 0x40 MLOAD PUSH4 0xE6C4247B PUSH1 0xE0 SHL DUP2 MSTORE PUSH1 0x4 ADD PUSH1 0x40 MLOAD DUP1 SWAP2 SUB SWAP1 REVERT JUMPDEST PUSH2 0x2710 PUSH2 0xFFFF DUP3 AND GT ISZERO PUSH2 0x291 JUMPI PUSH1 0x40 MLOAD PUSH4 0x2B84A557 PUSH1 0xE1 SHL DUP2 MSTORE PUSH2 0xFFFF DUP3 AND PUSH1 0x4 DUP3 ADD MSTORE PUSH1 0x24 ADD JUMPDEST PUSH1 0x40 MLOAD DUP1 SWAP2 SUB SWAP1 REVERT JUMPDEST PUSH1 0x1 DUP1 SLOAD PUSH1 0x1 PUSH1 0x1 PUSH1 0xA0 SHL SUB DUP5 AND PUSH1 0x1 PUSH1 0x1 PUSH1 0xB0 SHL SUB NOT SWAP1 SWAP2 AND DUP2 OR PUSH1 0x1 PUSH1 0xA0 SHL PUSH2 0xFFFF DUP6 AND SWAP1 DUP2 MUL SWAP2 SWAP1 SWAP2 OR SWAP1 SWAP3 SSTORE PUSH1 0x40 MLOAD SWAP2 DUP3 MSTORE SWAP1 PUSH32 0x2FA9002066B8A449CE7EE186D9885E027995BF3A87930F35BF88649023E5F1E1 SWAP1 PUSH1 0x20 ADD PUSH1 0x40 MLOAD DUP1 SWAP2 SUB SWAP1 LOG2 POP POP JUMP JUMPDEST PUSH2 0x301 PUSH2 0x919 JUMP JUMPDEST DUP1 PUSH1 0x0 SUB PUSH2 0x322 JUMPI PUSH1 0x40 MLOAD PUSH4 0x1F2A2005 PUSH1 0xE0 SHL DUP2 MSTORE PUSH1 0x4 ADD PUSH1 0x40 MLOAD DUP1 SWAP2 SUB SWAP1 REVERT JUMPDEST CALLER PUSH1 0x0 SWAP1 DUP2 MSTORE PUSH1 0x3 PUSH1 0x20 MSTORE PUSH1 0x40 SWAP1 KECCAK256 SLOAD DUP1 DUP3 GT ISZERO PUSH2 0x35D JUMPI PUSH1 0x40 MLOAD PUSH4 0x22DF0513 PUSH1 0xE1 SHL DUP2 MSTORE PUSH1 0x4 DUP2 ADD DUP4 SWAP1 MSTORE PUSH1 0x24 DUP2 ADD DUP3 SWAP1 MSTORE PUSH1 0x44 ADD PUSH2 0x288 JUMP JUMPDEST PUSH2 0x367 DUP3 DUP3 PUSH2 0xBEA JUMP JUMPDEST CALLER PUSH1 0x0 SWAP1 DUP2 MSTORE PUSH1 0x3 PUSH1 0x20 MSTORE PUSH1 0x40 DUP2 KECCAK256 SWAP2 SWAP1 SWAP2 SSTORE PUSH1 0x2 DUP1 SLOAD DUP5 SWAP3 SWAP1 PUSH2 0x38C SWAP1 DUP5 SWAP1 PUSH2 0xBEA JUMP JUMPDEST SWAP1 SWAP2 SSTORE POP PUSH2 0x3C6 SWAP1 POP PUSH1 0x1 PUSH1 0x1 PUSH1 0xA0 SHL SUB PUSH32 0x0 AND CALLER DUP5 PUSH2 0x935 JUMP JUMPDEST PUSH1 0x40 MLOAD DUP3 DUP2 MSTORE CALLER SWAP1 PUSH32 0x7084F5476618D8E60B11EF0D7D3F06914655ADB8793E28FF7F018D4C76D505D5 SWAP1 PUSH1 0x20 ADD PUSH1 0x40 MLOAD DUP1 SWAP2 SUB SWAP1 LOG2 POP PUSH2 0x413 PUSH1 0x1 PUSH1 0x0 DUP1 MLOAD PUSH1 0x20 PUSH2 0xC69 DUP4 CODECOPY DUP2 MLOAD SWAP2 MSTORE SSTORE JUMP JUMPDEST POP JUMP JUMPDEST PUSH2 0x41E PUSH2 0x8EC JUMP JUMPDEST PUSH1 0x1 PUSH1 0x1 PUSH1 0xA0 SHL SUB DUP4 AND ISZERO DUP1 PUSH2 0x43B JUMPI POP PUSH1 0x1 PUSH1 0x1 PUSH1 0xA0 SHL SUB DUP3 AND ISZERO JUMPDEST ISZERO PUSH2 0x459 JUMPI PUSH1 0x40 MLOAD PUSH4 0xE6C4247B PUSH1 0xE0 SHL DUP2 MSTORE PUSH1 0x4 ADD PUSH1 0x40 MLOAD DUP1 SWAP2 SUB SWAP1 REVERT JUMPDEST DUP1 PUSH1 0x0 SUB PUSH2 0x47A JUMPI PUSH1 0x40 MLOAD PUSH4 0x1F2A2005 PUSH1 0xE0 SHL DUP2 MSTORE PUSH1 0x4 ADD PUSH1 0x40 MLOAD DUP1 SWAP2 SUB SWAP1 REVERT JUMPDEST PUSH32 0x0 PUSH1 0x1 PUSH1 0x1 PUSH1 0xA0 SHL SUB AND DUP4 PUSH1 0x1 PUSH1 0x1 PUSH1 0xA0 SHL SUB AND SUB PUSH2 0x5E3 JUMPI PUSH1 0x40 MLOAD PUSH4 0x70A08231 PUSH1 0xE0 SHL DUP2 MSTORE ADDRESS PUSH1 0x4 DUP3 ADD MSTORE PUSH1 0x0 SWAP1 PUSH32 0x0 PUSH1 0x1 PUSH1 0x1 PUSH1 0xA0 SHL SUB AND SWAP1 PUSH4 0x70A08231 SWAP1 PUSH1 0x24 ADD PUSH1 0x20 PUSH1 0x40 MLOAD DUP1 DUP4 SUB DUP2 DUP7 GAS STATICCALL ISZERO DUP1 ISZERO PUSH2 0x51A JUMPI RETURNDATASIZE PUSH1 0x0 DUP1 RETURNDATACOPY RETURNDATASIZE PUSH1 0x0 REVERT JUMPDEST POP POP POP POP PUSH1 0x40 MLOAD RETURNDATASIZE PUSH1 0x1F NOT PUSH1 0x1F DUP3 ADD AND DUP3 ADD DUP1 PUSH1 0x40 MSTORE POP DUP2 ADD SWAP1 PUSH2 0x53E SWAP2 SWAP1 PUSH2 0xC03 JUMP JUMPDEST SWAP1 POP PUSH1 0x2 SLOAD DUP2 LT ISZERO PUSH2 0x58B JUMPI PUSH1 0x40 MLOAD PUSH3 0x461BCD PUSH1 0xE5 SHL DUP2 MSTORE PUSH1 0x20 PUSH1 0x4 DUP3 ADD MSTORE PUSH1 0x16 PUSH1 0x24 DUP3 ADD MSTORE PUSH22 0x12539590549250539517D0905317D31517D513D51053 PUSH1 0x52 SHL PUSH1 0x44 DUP3 ADD MSTORE PUSH1 0x64 ADD PUSH2 0x288 JUMP JUMPDEST PUSH1 0x0 PUSH1 0x2 SLOAD DUP3 PUSH2 0x59B SWAP2 SWAP1 PUSH2 0xBEA JUMP JUMPDEST SWAP1 POP DUP1 DUP4 GT ISZERO PUSH2 0x5E0 JUMPI PUSH1 0x40 MLOAD PUSH3 0x461BCD PUSH1 0xE5 SHL DUP2 MSTORE PUSH1 0x20 PUSH1 0x4 DUP3 ADD MSTORE PUSH1 0x10 PUSH1 0x24 DUP3 ADD MSTORE PUSH16 0x414D4F554E545F47545F455843455353 PUSH1 0x80 SHL PUSH1 0x44 DUP3 ADD MSTORE PUSH1 0x64 ADD PUSH2 0x288 JUMP JUMPDEST POP POP JUMPDEST PUSH2 0x5F7 PUSH1 0x1 PUSH1 0x1 PUSH1 0xA0 SHL SUB DUP5 AND DUP4 DUP4 PUSH2 0x935 JUMP JUMPDEST DUP2 PUSH1 0x1 PUSH1 0x1 PUSH1 0xA0 SHL SUB AND DUP4 PUSH1 0x1 PUSH1 0x1 PUSH1 0xA0 SHL SUB AND PUSH32 0x7B09C29F9106DEFECCC9AC3B823F3AAD0B470D120E5DF7AED033B5C43A4BF718 DUP4 PUSH1 0x40 MLOAD PUSH2 0x63C SWAP2 DUP2 MSTORE PUSH1 0x20 ADD SWAP1 JUMP JUMPDEST PUSH1 0x40 MLOAD DUP1 SWAP2 SUB SWAP1 LOG3 POP POP POP JUMP JUMPDEST PUSH2 0x651 PUSH2 0x8EC JUMP JUMPDEST PUSH2 0x65B PUSH1 0x0 PUSH2 0x96F JUMP JUMPDEST JUMP JUMPDEST PUSH2 0x665 PUSH2 0x919 JUMP JUMPDEST CALLER PUSH1 0x0 SWAP1 DUP2 MSTORE PUSH1 0x3 PUSH1 0x20 MSTORE PUSH1 0x40 DUP2 KECCAK256 SLOAD SWAP1 DUP2 SWAP1 SUB PUSH2 0x696 JUMPI PUSH1 0x40 MLOAD PUSH4 0x1F2A2005 PUSH1 0xE0 SHL DUP2 MSTORE PUSH1 0x4 ADD PUSH1 0x40 MLOAD DUP1 SWAP2 SUB SWAP1 REVERT JUMPDEST CALLER PUSH1 0x0 SWAP1 DUP2 MSTORE PUSH1 0x3 PUSH1 0x20 MSTORE PUSH1 0x40 DUP2 KECCAK256 DUP2 SWAP1 SSTORE PUSH1 0x2 DUP1 SLOAD DUP4 SWAP3 SWAP1 PUSH2 0x6BA SWAP1 DUP5 SWAP1 PUSH2 0xBEA JUMP JUMPDEST SWAP1 SWAP2 SSTORE POP PUSH2 0x6F4 SWAP1 POP PUSH1 0x1 PUSH1 0x1 PUSH1 0xA0 SHL SUB PUSH32 0x0 AND CALLER DUP4 PUSH2 0x935 JUMP JUMPDEST PUSH1 0x40 MLOAD DUP2 DUP2 MSTORE CALLER SWAP1 PUSH32 0x7084F5476618D8E60B11EF0D7D3F06914655ADB8793E28FF7F018D4C76D505D5 SWAP1 PUSH1 0x20 ADD PUSH1 0x40 MLOAD DUP1 SWAP2 SUB SWAP1 LOG2 POP PUSH2 0x65B PUSH1 0x1 PUSH1 0x0 DUP1 MLOAD PUSH1 0x20 PUSH2 0xC69 DUP4 CODECOPY DUP2 MLOAD SWAP2 MSTORE SSTORE JUMP JUMPDEST PUSH2 0x749 PUSH2 0x919 JUMP JUMPDEST DUP1 PUSH1 0x0 SUB PUSH2 0x76A JUMPI PUSH1 0x40 MLOAD PUSH4 0x1F2A2005 PUSH1 0xE0 SHL DUP2 MSTORE PUSH1 0x4 ADD PUSH1 0x40 MLOAD DUP1 SWAP2 SUB SWAP1 REVERT JUMPDEST PUSH2 0x79F PUSH1 0x1 PUSH1 0x1 PUSH1 0xA0 SHL SUB PUSH32 0x0 AND CALLER ADDRESS DUP5 PUSH2 0x9BF JUMP JUMPDEST PUSH1 0x1 SLOAD PUSH1 0x0 SWAP1 PUSH2 0x2710 SWAP1 PUSH2 0x7BE SWAP1 PUSH1 0x1 PUSH1 0xA0 SHL SWAP1 DIV PUSH2 0xFFFF AND DUP5 PUSH2 0xC1C JUMP JUMPDEST PUSH2 0x7C8 SWAP2 SWAP1 PUSH2 0xC33 JUMP JUMPDEST SWAP1 POP PUSH1 0x0 PUSH2 0x7D6 DUP3 DUP5 PUSH2 0xBEA JUMP JUMPDEST SWAP1 POP DUP2 ISZERO PUSH2 0x818 JUMPI PUSH1 0x1 SLOAD PUSH2 0x818 SWAP1 PUSH1 0x1 PUSH1 0x1 PUSH1 0xA0 SHL SUB PUSH32 0x0 DUP2 AND SWAP2 AND DUP5 PUSH2 0x935 JUMP JUMPDEST CALLER PUSH1 0x0 SWAP1 DUP2 MSTORE PUSH1 0x3 PUSH1 0x20 MSTORE PUSH1 0x40 DUP2 KECCAK256 DUP1 SLOAD DUP4 SWAP3 SWAP1 PUSH2 0x837 SWAP1 DUP5 SWAP1 PUSH2 0xC55 JUMP JUMPDEST SWAP3 POP POP DUP2 SWAP1 SSTORE POP DUP1 PUSH1 0x2 PUSH1 0x0 DUP3 DUP3 SLOAD PUSH2 0x850 SWAP2 SWAP1 PUSH2 0xC55 JUMP JUMPDEST SWAP1 SWAP2 SSTORE POP POP PUSH1 0x40 DUP1 MLOAD DUP5 DUP2 MSTORE PUSH1 0x20 DUP2 ADD DUP5 SWAP1 MSTORE SWAP1 DUP2 ADD DUP3 SWAP1 MSTORE CALLER SWAP1 PUSH32 0xB4CAAF29ADDA3EEFEE3AD552A8E85058589BF834C7466CAE4EE58787F70589ED SWAP1 PUSH1 0x60 ADD PUSH1 0x40 MLOAD DUP1 SWAP2 SUB SWAP1 LOG2 POP POP PUSH2 0x413 PUSH1 0x1 PUSH1 0x0 DUP1 MLOAD PUSH1 0x20 PUSH2 0xC69 DUP4 CODECOPY DUP2 MLOAD SWAP2 MSTORE SSTORE JUMP JUMPDEST PUSH2 0x8B9 PUSH2 0x8EC JUMP JUMPDEST PUSH1 0x1 PUSH1 0x1 PUSH1 0xA0 SHL SUB DUP2 AND PUSH2 0x8E3 JUMPI PUSH1 0x40 MLOAD PUSH4 0x1E4FBDF7 PUSH1 0xE0 SHL DUP2 MSTORE PUSH1 0x0 PUSH1 0x4 DUP3 ADD MSTORE PUSH1 0x24 ADD PUSH2 0x288 JUMP JUMPDEST PUSH2 0x413 DUP2 PUSH2 0x96F JUMP JUMPDEST PUSH1 0x0 SLOAD PUSH1 0x1 PUSH1 0x1 PUSH1 0xA0 SHL SUB AND CALLER EQ PUSH2 0x65B JUMPI PUSH1 0x40 MLOAD PUSH4 0x118CDAA7 PUSH1 0xE0 SHL DUP2 MSTORE CALLER PUSH1 0x4 DUP3 ADD MSTORE PUSH1 0x24 ADD PUSH2 0x288 JUMP JUMPDEST PUSH2 0x921 PUSH2 0x9FB JUMP JUMPDEST PUSH1 0x2 PUSH1 0x0 DUP1 MLOAD PUSH1 0x20 PUSH2 0xC69 DUP4 CODECOPY DUP2 MLOAD SWAP2 MSTORE SSTORE JUMP JUMPDEST PUSH2 0x942 DUP4 DUP4 DUP4 PUSH1 0x1 PUSH2 0xA2B JUMP JUMPDEST PUSH2 0x96A JUMPI PUSH1 0x40 MLOAD PUSH4 0x5274AFE7 PUSH1 0xE0 SHL DUP2 MSTORE PUSH1 0x1 PUSH1 0x1 PUSH1 0xA0 SHL SUB DUP5 AND PUSH1 0x4 DUP3 ADD MSTORE PUSH1 0x24 ADD PUSH2 0x288 JUMP JUMPDEST POP POP POP JUMP JUMPDEST PUSH1 0x0 DUP1 SLOAD PUSH1 0x1 PUSH1 0x1 PUSH1 0xA0 SHL SUB DUP4 DUP2 AND PUSH1 0x1 PUSH1 0x1 PUSH1 0xA0 SHL SUB NOT DUP4 AND DUP2 OR DUP5 SSTORE PUSH1 0x40 MLOAD SWAP2 SWAP1 SWAP3 AND SWAP3 DUP4 SWAP2 PUSH32 0x8BE0079C531659141344CD1FD0A4F28419497F9722A3DAAFE3B4186F6B6457E0 SWAP2 SWAP1 LOG3 POP POP JUMP JUMPDEST PUSH2 0x9CD DUP5 DUP5 DUP5 DUP5 PUSH1 0x1 PUSH2 0xA91 JUMP JUMPDEST PUSH2 0x9F5 JUMPI PUSH1 0x40 MLOAD PUSH4 0x5274AFE7 PUSH1 0xE0 SHL DUP2 MSTORE PUSH1 0x1 PUSH1 0x1 PUSH1 0xA0 SHL SUB DUP6 AND PUSH1 0x4 DUP3 ADD MSTORE PUSH1 0x24 ADD PUSH2 0x288 JUMP JUMPDEST POP POP POP POP JUMP JUMPDEST PUSH1 0x0 DUP1 MLOAD PUSH1 0x20 PUSH2 0xC69 DUP4 CODECOPY DUP2 MLOAD SWAP2 MSTORE SLOAD PUSH1 0x2 SUB PUSH2 0x65B JUMPI PUSH1 0x40 MLOAD PUSH4 0x3EE5AEB5 PUSH1 0xE0 SHL DUP2 MSTORE PUSH1 0x4 ADD PUSH1 0x40 MLOAD DUP1 SWAP2 SUB SWAP1 REVERT JUMPDEST PUSH1 0x40 MLOAD PUSH4 0xA9059CBB PUSH1 0xE0 SHL PUSH1 0x0 DUP2 DUP2 MSTORE PUSH1 0x1 PUSH1 0x1 PUSH1 0xA0 SHL SUB DUP7 AND PUSH1 0x4 MSTORE PUSH1 0x24 DUP6 SWAP1 MSTORE SWAP2 PUSH1 0x20 DUP4 PUSH1 0x44 DUP2 DUP1 DUP12 GAS CALL SWAP3 POP PUSH1 0x1 PUSH1 0x0 MLOAD EQ DUP4 AND PUSH2 0xA85 JUMPI DUP4 DUP4 ISZERO AND ISZERO PUSH2 0xA78 JUMPI RETURNDATASIZE PUSH1 0x0 DUP3 RETURNDATACOPY RETURNDATASIZE DUP2 REVERT JUMPDEST PUSH1 0x0 DUP8 EXTCODESIZE GT RETURNDATASIZE ISZERO AND DUP4 AND SWAP3 POP JUMPDEST PUSH1 0x40 MSTORE POP SWAP5 SWAP4 POP POP POP POP JUMP JUMPDEST PUSH1 0x40 MLOAD PUSH4 0x23B872DD PUSH1 0xE0 SHL PUSH1 0x0 DUP2 DUP2 MSTORE PUSH1 0x1 PUSH1 0x1 PUSH1 0xA0 SHL SUB DUP8 DUP2 AND PUSH1 0x4 MSTORE DUP7 AND PUSH1 0x24 MSTORE PUSH1 0x44 DUP6 SWAP1 MSTORE SWAP2 PUSH1 0x20 DUP4 PUSH1 0x64 DUP2 DUP1 DUP13 GAS CALL SWAP3 POP PUSH1 0x1 PUSH1 0x0 MLOAD EQ DUP4 AND PUSH2 0xAF1 JUMPI DUP4 DUP4 ISZERO AND ISZERO PUSH2 0xAE4 JUMPI RETURNDATASIZE PUSH1 0x0 DUP3 RETURNDATACOPY RETURNDATASIZE DUP2 REVERT JUMPDEST PUSH1 0x0 DUP9 EXTCODESIZE GT RETURNDATASIZE ISZERO AND DUP4 AND SWAP3 POP JUMPDEST PUSH1 0x40 MSTORE POP PUSH1 0x0 PUSH1 0x60 MSTORE SWAP6 SWAP5 POP POP POP POP POP JUMP JUMPDEST DUP1 CALLDATALOAD PUSH1 0x1 PUSH1 0x1 PUSH1 0xA0 SHL SUB DUP2 AND DUP2 EQ PUSH2 0xB1A JUMPI PUSH1 0x0 DUP1 REVERT JUMPDEST SWAP2 SWAP1 POP JUMP JUMPDEST PUSH1 0x0 DUP1 PUSH1 0x40 DUP4 DUP6 SUB SLT ISZERO PUSH2 0xB32 JUMPI PUSH1 0x0 DUP1 REVERT JUMPDEST PUSH2 0xB3B DUP4 PUSH2 0xB03 JUMP JUMPDEST SWAP2 POP PUSH1 0x20 DUP4 ADD CALLDATALOAD PUSH2 0xFFFF DUP2 AND DUP2 EQ PUSH2 0xB52 JUMPI PUSH1 0x0 DUP1 REVERT JUMPDEST DUP1 SWAP2 POP POP SWAP3 POP SWAP3 SWAP1 POP JUMP JUMPDEST PUSH1 0x0 PUSH1 0x20 DUP3 DUP5 SUB SLT ISZERO PUSH2 0xB6F JUMPI PUSH1 0x0 DUP1 REVERT JUMPDEST POP CALLDATALOAD SWAP2 SWAP1 POP JUMP JUMPDEST PUSH1 0x0 PUSH1 0x20 DUP3 DUP5 SUB SLT ISZERO PUSH2 0xB88 JUMPI PUSH1 0x0 DUP1 REVERT JUMPDEST PUSH2 0xB91 DUP3 PUSH2 0xB03 JUMP JUMPDEST SWAP4 SWAP3 POP POP POP JUMP JUMPDEST PUSH1 0x0 DUP1 PUSH1 0x0 PUSH1 0x60 DUP5 DUP7 SUB SLT ISZERO PUSH2 0xBAD JUMPI PUSH1 0x0 DUP1 REVERT JUMPDEST PUSH2 0xBB6 DUP5 PUSH2 0xB03 JUMP JUMPDEST SWAP3 POP PUSH2 0xBC4 PUSH1 0x20 DUP6 ADD PUSH2 0xB03 JUMP JUMPDEST SWAP2 POP PUSH1 0x40 DUP5 ADD CALLDATALOAD SWAP1 POP SWAP3 POP SWAP3 POP SWAP3 JUMP JUMPDEST PUSH4 0x4E487B71 PUSH1 0xE0 SHL PUSH1 0x0 MSTORE PUSH1 0x11 PUSH1 0x4 MSTORE PUSH1 0x24 PUSH1 0x0 REVERT JUMPDEST DUP2 DUP2 SUB DUP2 DUP2 GT ISZERO PUSH2 0xBFD JUMPI PUSH2 0xBFD PUSH2 0xBD4 JUMP JUMPDEST SWAP3 SWAP2 POP POP JUMP JUMPDEST PUSH1 0x0 PUSH1 0x20 DUP3 DUP5 SUB SLT ISZERO PUSH2 0xC15 JUMPI PUSH1 0x0 DUP1 REVERT JUMPDEST POP MLOAD SWAP2 SWAP1 POP JUMP JUMPDEST DUP1 DUP3 MUL DUP2 ISZERO DUP3 DUP3 DIV DUP5 EQ OR PUSH2 0xBFD JUMPI PUSH2 0xBFD PUSH2 0xBD4 JUMP JUMPDEST PUSH1 0x0 DUP3 PUSH2 0xC50 JUMPI PUSH4 0x4E487B71 PUSH1 0xE0 SHL PUSH1 0x0 MSTORE PUSH1 0x12 PUSH1 0x4 MSTORE PUSH1 0x24 PUSH1 0x0 REVERT JUMPDEST POP DIV SWAP1 JUMP JUMPDEST DUP1 DUP3 ADD DUP1 DUP3 GT ISZERO PUSH2 0xBFD JUMPI PUSH2 0xBFD PUSH2 0xBD4 JUMP INVALID SWAP12 PUSH24 0x9B17422D0DF92223018B32B4D1FA46E071723D6817E2486D STOP EXTCODESIZE 0xEC 0xC5 PUSH0 STOP LOG2 PUSH5 0x6970667358 0x22 SLT KECCAK256 0xE6 0xE0 0xEA DELEGATECALL PUSH29 0x2F3F37B3ACBC6AF712203B266C25EA5D7C1ED0AB8256640665CA6D6473 PUSH16 0x6C634300081800330000000000000000 "},"methodIdentifiers":{"MAX_BPS()":"fd967f47","burnAddress()":"70d5ae05","burnBps()":"53deb3d6","owner()":"8da5cb5b","renounceOwnership()":"715018a6","setBurnConfig(address,uint16)":"1580795e","stake(uint256)":"a694fc3a","stakedBalance(address)":"60217267","stakingToken()":"72f702f3","sweep(address,address,uint256)":"62c06767","totalStaked()":"817b1cd2","transferOwnership(address)":"f2fde38b","withdraw(uint256)":"2e1a7d4d","withdrawAll()":"853828b6"}}}}}