{
  "_format": "hh-sol-artifact-1",
  "contractName": "StakingTreasuryBurn",
  "sourceName": "contracts/StakingTreasuryBurn.sol",
  "abi": [
    {
      "inputs": [
        {
          "internalType": "address",
          "name": "_stakingToken",
          "type": "address"
        },
        {
          "internalType": "address",
          "name": "_owner",
          "type": "address"
        },
        {
          "internalType": "address",
          "name": "_burnAddress",
          "type": "address"
        },
        {
          "internalType": "uint16",
          "name": "_burnBps",
          "type": "uint16"
        }
      ],
      "stateMutability": "nonpayable",
      "type": "constructor"
    },
    {
      "inputs": [
        {
          "internalType": "uint256",
          "name": "requested",
          "type": "uint256"
        },
        {
          "internalType": "uint256",
          "name": "available",
          "type": "uint256"
        }
      ],
      "name": "InsufficientStake",
      "type": "error"
    },
    {
      "inputs": [],
      "name": "InvalidAddress",
      "type": "error"
    },
    {
      "inputs": [
        {
          "internalType": "uint16",
          "name": "bps",
          "type": "uint16"
        }
      ],
      "name": "InvalidBps",
      "type": "error"
    },
    {
      "inputs": [
        {
          "internalType": "address",
          "name": "owner",
          "type": "address"
        }
      ],
      "name": "OwnableInvalidOwner",
      "type": "error"
    },
    {
      "inputs": [
        {
          "internalType": "address",
          "name": "account",
          "type": "address"
        }
      ],
      "name": "OwnableUnauthorizedAccount",
      "type": "error"
    },
    {
      "inputs": [],
      "name": "ReentrancyGuardReentrantCall",
      "type": "error"
    },
    {
      "inputs": [
        {
          "internalType": "address",
          "name": "token",
          "type": "address"
        }
      ],
      "name": "SafeERC20FailedOperation",
      "type": "error"
    },
    {
      "inputs": [],
      "name": "ZeroAmount",
      "type": "error"
    },
    {
      "anonymous": false,
      "inputs": [
        {
          "indexed": true,
          "internalType": "address",
          "name": "burnAddress",
          "type": "address"
        },
        {
          "indexed": false,
          "internalType": "uint16",
          "name": "burnBps",
          "type": "uint16"
        }
      ],
      "name": "BurnConfigUpdated",
      "type": "event"
    },
    {
      "anonymous": false,
      "inputs": [
        {
          "indexed": true,
          "internalType": "address",
          "name": "previousOwner",
          "type": "address"
        },
        {
          "indexed": true,
          "internalType": "address",
          "name": "newOwner",
          "type": "address"
        }
      ],
      "name": "OwnershipTransferred",
      "type": "event"
    },
    {
      "anonymous": false,
      "inputs": [
        {
          "indexed": true,
          "internalType": "address",
          "name": "user",
          "type": "address"
        },
        {
          "indexed": false,
          "internalType": "uint256",
          "name": "amountIn",
          "type": "uint256"
        },
        {
          "indexed": false,
          "internalType": "uint256",
          "name": "burned",
          "type": "uint256"
        },
        {
          "indexed": false,
          "internalType": "uint256",
          "name": "credited",
          "type": "uint256"
        }
      ],
      "name": "Staked",
      "type": "event"
    },
    {
      "anonymous": false,
      "inputs": [
        {
          "indexed": true,
          "internalType": "address",
          "name": "token",
          "type": "address"
        },
        {
          "indexed": true,
          "internalType": "address",
          "name": "to",
          "type": "address"
        },
        {
          "indexed": false,
          "internalType": "uint256",
          "name": "amount",
          "type": "uint256"
        }
      ],
      "name": "Swept",
      "type": "event"
    },
    {
      "anonymous": false,
      "inputs": [
        {
          "indexed": true,
          "internalType": "address",
          "name": "user",
          "type": "address"
        },
        {
          "indexed": false,
          "internalType": "uint256",
          "name": "amountOut",
          "type": "uint256"
        }
      ],
      "name": "Withdrawn",
      "type": "event"
    },
    {
      "inputs": [],
      "name": "MAX_BPS",
      "outputs": [
        {
          "internalType": "uint16",
          "name": "",
          "type": "uint16"
        }
      ],
      "stateMutability": "view",
      "type": "function"
    },
    {
      "inputs": [],
      "name": "burnAddress",
      "outputs": [
        {
          "internalType": "address",
          "name": "",
          "type": "address"
        }
      ],
      "stateMutability": "view",
      "type": "function"
    },
    {
      "inputs": [],
      "name": "burnBps",
      "outputs": [
        {
          "internalType": "uint16",
          "name": "",
          "type": "uint16"
        }
      ],
      "stateMutability": "view",
      "type": "function"
    },
    {
      "inputs": [],
      "name": "owner",
      "outputs": [
        {
          "internalType": "address",
          "name": "",
          "type": "address"
        }
      ],
      "stateMutability": "view",
      "type": "function"
    },
    {
      "inputs": [],
      "name": "renounceOwnership",
      "outputs": [],
      "stateMutability": "nonpayable",
      "type": "function"
    },
    {
      "inputs": [
        {
          "internalType": "address",
          "name": "_burnAddress",
          "type": "address"
        },
        {
          "internalType": "uint16",
          "name": "_burnBps",
          "type": "uint16"
        }
      ],
      "name": "setBurnConfig",
      "outputs": [],
      "stateMutability": "nonpayable",
      "type": "function"
    },
    {
      "inputs": [
        {
          "internalType": "uint256",
          "name": "amount",
          "type": "uint256"
        }
      ],
      "name": "stake",
      "outputs": [],
      "stateMutability": "nonpayable",
      "type": "function"
    },
    {
      "inputs": [
        {
          "internalType": "address",
          "name": "",
          "type": "address"
        }
      ],
      "name": "stakedBalance",
      "outputs": [
        {
          "internalType": "uint256",
          "name": "",
          "type": "uint256"
        }
      ],
      "stateMutability": "view",
      "type": "function"
    },
    {
      "inputs": [],
      "name": "stakingToken",
      "outputs": [
        {
          "internalType": "contract IERC20",
          "name": "",
          "type": "address"
        }
      ],
      "stateMutability": "view",
      "type": "function"
    },
    {
      "inputs": [
        {
          "internalType": "address",
          "name": "token",
          "type": "address"
        },
        {
          "internalType": "address",
          "name": "to",
          "type": "address"
        },
        {
          "internalType": "uint256",
          "name": "amount",
          "type": "uint256"
        }
      ],
      "name": "sweep",
      "outputs": [],
      "stateMutability": "nonpayable",
      "type": "function"
    },
    {
      "inputs": [],
      "name": "totalStaked",
      "outputs": [
        {
          "internalType": "uint256",
          "name": "",
          "type": "uint256"
        }
      ],
      "stateMutability": "view",
      "type": "function"
    },
    {
      "inputs": [
        {
          "internalType": "address",
          "name": "newOwner",
          "type": "address"
        }
      ],
      "name": "transferOwnership",
      "outputs": [],
      "stateMutability": "nonpayable",
      "type": "function"
    },
    {
      "inputs": [
        {
          "internalType": "uint256",
          "name": "amount",
          "type": "uint256"
        }
      ],
      "name": "withdraw",
      "outputs": [],
      "stateMutability": "nonpayable",
      "type": "function"
    },
    {
      "inputs": [],
      "name": "withdrawAll",
      "outputs": [],
      "stateMutability": "nonpayable",
      "type": "function"
    }
  ],
  "bytecode": "0x60a06040523480156200001157600080fd5b5060405162000f3c38038062000f3c8339810160408190526200003491620001d3565b826001600160a01b0381166200006557604051631e4fbdf760e01b8152600060048201526024015b60405180910390fd5b620000708162000166565b5060017f9b779b17422d0df92223018b32b4d1fa46e071723d6817e2486d003becc55f00556001600160a01b0384161580620000b357506001600160a01b038316155b15620000d25760405163e6c4247b60e01b815260040160405180910390fd5b6001600160a01b038216620000fa5760405163e6c4247b60e01b815260040160405180910390fd5b61271061ffff821611156200012957604051632b84a55760e11b815261ffff821660048201526024016200005c565b6001600160a01b039384166080526001805461ffff909216600160a01b026001600160b01b03199092169290941691909117179091555062000238565b600080546001600160a01b038381166001600160a01b0319831681178455604051919092169283917f8be0079c531659141344cd1fd0a4f28419497f9722a3daafe3b4186f6b6457e09190a35050565b80516001600160a01b0381168114620001ce57600080fd5b919050565b60008060008060808587031215620001ea57600080fd5b620001f585620001b6565b93506200020560208601620001b6565b92506200021560408601620001b6565b9150606085015161ffff811681146200022d57600080fd5b939692955090935050565b608051610cbe6200027e600039600081816101bd0152818161039f0152818161047c015281816104cb015281816106cd0152818161077701526107ef0152610cbe6000f3fe608060405234801561001057600080fd5b50600436106100ea5760003560e01c806372f702f31161008c5780638da5cb5b116100665780638da5cb5b146101f0578063a694fc3a14610201578063f2fde38b14610214578063fd967f471461022757600080fd5b806372f702f3146101b8578063817b1cd2146101df578063853828b6146101e857600080fd5b806360217267116100c8578063602172671461014457806362c067671461017257806370d5ae0514610185578063715018a6146101b057600080fd5b80631580795e146100ef5780632e1a7d4d1461010457806353deb3d614610117575b600080fd5b6101026100fd366004610b1f565b610230565b005b610102610112366004610b5d565b6102f9565b60015461012c90600160a01b900461ffff1681565b60405161ffff90911681526020015b60405180910390f35b610164610152366004610b76565b60036020526000908152604090205481565b60405190815260200161013b565b610102610180366004610b98565b610416565b600154610198906001600160a01b031681565b6040516001600160a01b03909116815260200161013b565b610102610649565b6101987f000000000000000000000000000000000000000000000000000000000000000081565b61016460025481565b61010261065d565b6000546001600160a01b0316610198565b61010261020f366004610b5d565b610741565b610102610222366004610b76565b6108b1565b61012c61271081565b6102386108ec565b6001600160a01b03821661025f5760405163e6c4247b60e01b815260040160405180910390fd5b61271061ffff8216111561029157604051632b84a55760e11b815261ffff821660048201526024015b60405180910390fd5b600180546001600160a01b0384166001600160b01b03199091168117600160a01b61ffff851690810291909117909255604051918252907f2fa9002066b8a449ce7ee186d9885e027995bf3a87930f35bf88649023e5f1e19060200160405180910390a25050565b610301610919565b8060000361032257604051631f2a200560e01b815260040160405180910390fd5b336000908152600360205260409020548082111561035d576040516322df051360e11b81526004810183905260248101829052604401610288565b6103678282610bea565b336000908152600360205260408120919091556002805484929061038c908490610bea565b909155506103c690506001600160a01b037f0000000000000000000000000000000000000000000000000000000000000000163384610935565b60405182815233907f7084f5476618d8e60b11ef0d7d3f06914655adb8793e28ff7f018d4c76d505d59060200160405180910390a2506104136001600080516020610c6983398151915255565b50565b61041e6108ec565b6001600160a01b038316158061043b57506001600160a01b038216155b156104595760405163e6c4247b60e01b815260040160405180910390fd5b8060000361047a57604051631f2a200560e01b815260040160405180910390fd5b7f00000000000000000000000000000000000000000000000000000000000000006001600160a01b0316836001600160a01b0316036105e3576040516370a0823160e01b81523060048201526000907f00000000000000000000000000000000000000000000000000000000000000006001600160a01b0316906370a0823190602401602060405180830381865afa15801561051a573d6000803e3d6000fd5b505050506040513d601f19601f8201168201806040525081019061053e9190610c03565b905060025481101561058b5760405162461bcd60e51b815260206004820152601660248201527512539590549250539517d0905317d31517d513d5105360521b6044820152606401610288565b60006002548261059b9190610bea565b9050808311156105e05760405162461bcd60e51b815260206004820152601060248201526f414d4f554e545f47545f45584345535360801b6044820152606401610288565b50505b6105f76001600160a01b0384168383610935565b816001600160a01b0316836001600160a01b03167f7b09c29f9106defeccc9ac3b823f3aad0b470d120e5df7aed033b5c43a4bf7188360405161063c91815260200190565b60405180910390a3505050565b6106516108ec565b61065b600061096f565b565b610665610919565b336000908152600360205260408120549081900361069657604051631f2a200560e01b815260040160405180910390fd5b336000908152600360205260408120819055600280548392906106ba908490610bea565b909155506106f490506001600160a01b037f0000000000000000000000000000000000000000000000000000000000000000163383610935565b60405181815233907f7084f5476618d8e60b11ef0d7d3f06914655adb8793e28ff7f018d4c76d505d59060200160405180910390a25061065b6001600080516020610c6983398151915255565b610749610919565b8060000361076a57604051631f2a200560e01b815260040160405180910390fd5b61079f6001600160a01b037f0000000000000000000000000000000000000000000000000000000000000000163330846109bf565b600154600090612710906107be90600160a01b900461ffff1684610c1c565b6107c89190610c33565b905060006107d68284610bea565b9050811561081857600154610818906001600160a01b037f00000000000000000000000000000000000000000000000000000000000000008116911684610935565b3360009081526003602052604081208054839290610837908490610c55565b9250508190555080600260008282546108509190610c55565b9091555050604080518481526020810184905290810182905233907fb4caaf29adda3eefee3ad552a8e85058589bf834c7466cae4ee58787f70589ed9060600160405180910390a250506104136001600080516020610c6983398151915255565b6108b96108ec565b6001600160a01b0381166108e357604051631e4fbdf760e01b815260006004820152602401610288565b6104138161096f565b6000546001600160a01b0316331461065b5760405163118cdaa760e01b8152336004820152602401610288565b6109216109fb565b6002600080516020610c6983398151915255565b6109428383836001610a2b565b61096a57604051635274afe760e01b81526001600160a01b0384166004820152602401610288565b505050565b600080546001600160a01b038381166001600160a01b0319831681178455604051919092169283917f8be0079c531659141344cd1fd0a4f28419497f9722a3daafe3b4186f6b6457e09190a35050565b6109cd848484846001610a91565b6109f557604051635274afe760e01b81526001600160a01b0385166004820152602401610288565b50505050565b600080516020610c698339815191525460020361065b57604051633ee5aeb560e01b815260040160405180910390fd5b60405163a9059cbb60e01b60008181526001600160a01b038616600452602485905291602083604481808b5af192506001600051148316610a85578383151615610a78573d6000823e3d81fd5b6000873b113d1516831692505b60405250949350505050565b6040516323b872dd60e01b60008181526001600160a01b038781166004528616602452604485905291602083606481808c5af192506001600051148316610af1578383151615610ae4573d6000823e3d81fd5b6000883b113d1516831692505b60405250600060605295945050505050565b80356001600160a01b0381168114610b1a57600080fd5b919050565b60008060408385031215610b3257600080fd5b610b3b83610b03565b9150602083013561ffff81168114610b5257600080fd5b809150509250929050565b600060208284031215610b6f57600080fd5b5035919050565b600060208284031215610b8857600080fd5b610b9182610b03565b9392505050565b600080600060608486031215610bad57600080fd5b610bb684610b03565b9250610bc460208501610b03565b9150604084013590509250925092565b634e487b7160e01b600052601160045260246000fd5b81810381811115610bfd57610bfd610bd4565b92915050565b600060208284031215610c1557600080fd5b5051919050565b8082028115828204841417610bfd57610bfd610bd4565b600082610c5057634e487b7160e01b600052601260045260246000fd5b500490565b80820180821115610bfd57610bfd610bd456fe9b779b17422d0df92223018b32b4d1fa46e071723d6817e2486d003becc55f00a2646970667358221220e6e0eaf47c2f3f37b3acbc6af712203b266c25ea5d7c1ed0ab8256640665ca6d64736f6c63430008180033",
  "linkReferences": {},
  "deployedLinkReferences": {}
}